{
  "contractName": "SetStorage",
  "abi": [
    {
      "constant": true,
      "inputs": [],
      "name": "counter",
      "outputs": [
        {
          "name": "",
          "type": "uint256"
        }
      ],
      "payable": false,
      "stateMutability": "view",
      "type": "function"
    },
    {
      "inputs": [],
      "payable": false,
      "stateMutability": "nonpayable",
      "type": "constructor"
    },
    {
      "constant": false,
      "inputs": [
        {
          "name": "count",
          "type": "uint256"
        }
      ],
      "name": "setStorage",
      "outputs": [],
      "payable": false,
      "stateMutability": "nonpayable",
      "type": "function"
    }
  ],
  "bytecode": "0x608060405234801561001057600080fd5b50600a60008190555060e9806100276000396000f3fe6080604052600436106049576000357c0100000000000000000000000000000000000000000000000000000000900463ffffffff16806361bc221a14604e578063d699c750146076575b600080fd5b348015605957600080fd5b50606060ad565b6040518082815260200191505060405180910390f35b348015608157600080fd5b5060ab60048036036020811015609657600080fd5b810190808035906020019092919050505060b3565b005b60005481565b806000819055505056fea165627a7a723058207d823807e1a37ba837250a4061ed82fb0d7a9050045946a6d09ee7856f33f21d0029",
  "source": "pragma solidity >=0.4.21 <0.6.0;\n/**\nUsed for simulate an external community deploy\n */\ncontract SetStorage {\n    uint public counter;\n\n    constructor() public {\n        counter = 10;\n    }\n\n    function setStorage(uint count) public {\n        counter = count;\n    }\n\n    \n\n}\n",
  "sourcePath": "/home/bd/Desktop/yarilabs/gitlab/PMINT-GROUP/stable-token/contracts/outOfArchitecture/SetStorage.sol",
  "compiler": {
    "name": "solc",
    "version": "0.5.0+commit.1d4f565a.Emscripten.clang"
  },
  "schemaVersion": "3.0.1",
  "updatedAt": "2019-03-14T15:44:34.242Z",
  "devdoc": {
    "methods": {}
  },
  "userdoc": {
    "methods": {},
    "notice": "Used for simulate an external community deploy"
  }
}